:100000000C945D000C9485000C9485000C94850084
:100010000C9485000C9485000C9485000C9485004C
:100020000C9485000C9485000C9485000C9485003C
:100030000C9485000C9485000C9485000C9485002C
:100040000C94FE030C9485000C94CC030C94A60332
:100050000C9485000C9485000C9485000C9485000C
:100060000C9485000C94850000000008000201003B
:100070000003040700000000000000000000000072
:10008000250028002B0000000000240027002A0083
:10009000040404040404040402020202020203032E
:1000A0000303030301020408102040800102040836
:1000B0001020010204081020D40511241FBECFEF28
:1000C000D8E0DEBFCDBF21E0ACE2B1E001C01D92BF
:1000D000A63DB207E1F711E0A0E0B1E0EEECF0E1FF
:1000E00002C005900D92AC32B107D9F710E0CDE512
:1000F000D0E004C02197FE010E946D06CC35D107E7
:10010000C9F70E9448040C9465080C94000090E024
:10011000FC01EC55FF4F249180579F4FFC018491C7
:10012000882399F090E0880F991FFC01EA57FF4F50
:10013000A591B491FC01E458FF4F859194918FB73C
:10014000F894EC91E22BEC938FBF0895AF92BF929D
:10015000CF92DF92EF92FF920F931F93CF93DF9393
:100160006C017B018B01040F151FEB015E01AE18C2
:10017000BF08C017D10759F06991D601ED91FC91E4
:100180000190F081E02DC6010995892B79F7C50111
:10019000DF91CF911F910F91FF90EF90DF90CF9063
:1001A000BF90AF900895FC01538D448D252F30E012
:1001B000842F90E0821B930B541710F0CF96089574
:1001C00001970895FC01918D828D981761F0A28DA1
:1001D000AE0FBF2FB11D5D968C91928D9F5F9F7367
:1001E000928F90E008958FEF9FEF0895FC01918D1D
:1001F000828D981731F0828DE80FF11D858D90E08A
:1002000008958FEF9FEF0895FC01918D228D892F26
:1002100090E0805C9F4F821B91098F73992708950E
:1002200085E391E00E94040121E0892B09F420E09C
:10023000822F089580E090E0892B29F00E94100120
:1002400081110C9400000895FC01A48DA80FB92F12
:10025000B11DA35ABF4F2C91848D90E001968F73EE
:100260009927848FA689B7892C93A089B1898C910D
:10027000837080648C93938D848D981306C002885C
:10028000F389E02D80818F7D80830895EF92FF9226
:100290000F931F93CF93DF93EC0181E0888F9B8DA9
:1002A0008C8D98131AC0E889F989808185FF15C063
:1002B0009FB7F894EE89FF896083E889F989808186
:1002C0008370806480839FBF81E090E0DF91CF9155
:1002D0001F910F91FF90EF900895F62E0B8D10E077
:1002E0000F5F1F4F0F731127E02E8C8D8E110CC0E6
:1002F0000FB607FCFACFE889F989808185FFF5CF31
:10030000CE010E942401F1CFEB8DEC0FFD2FF11DEA
:10031000E35AFF4FF0829FB7F8940B8FEA89FB896D
:1003200080818062CFCFCF93DF93EC01888D8823CB
:10033000B9F0AA89BB89E889F9898C9185FD03C048
:10034000808186FD0DC00FB607FCF7CF8C9185FF2D
:10035000F2CF808185FFEDCFCE010E942401E9CF4D
:10036000DF91CF91089590E0FC01E859FF4F24916F
:10037000FC01EC55FF4F3491FC01E057FF4FE49135
:10038000EE23C9F0222339F0233001F1A8F4213003
:1003900019F1223029F1F0E0EE0FFF1FE458FF4F72
:1003A000A591B4918FB7F894EC91611126C0309566
:1003B0003E233C938FBF08952730A9F02830C9F021
:1003C000243049F7809180008F7D03C080918000A8
:1003D0008F7780938000DFCF84B58F7784BDDBCFAC
:1003E00084B58F7DFBCF8091B0008F778093B00074
:1003F000D2CF8091B0008F7DF9CF3E2BDACF1F9303
:10040000CF93DF93182FEB010E948700209739F4D8
:1004100060E0812FDF91CF911F910C94B301E12F08
:10042000F0E0E859FF4FE491E33039F148F4E1306E
:10043000B9F0E230E9F0C038D10554F361E0E9CF1A
:10044000E73029F1E83059F1E430A9F780918000D4
:10045000806280938000D0938B00C0938A0004C098
:1004600084B5806884BDC7BDDF91CF911F91089589
:1004700084B5806284BDC8BDF7CF8091800080685C
:1004800080938000D0938900C0938800EDCF809145
:10049000B00080688093B000C093B300E5CF809136
:1004A000B00080628093B000C093B400DDCF3FB74E
:1004B000F8948091310190913201A0913301B09173
:1004C000340126B5A89B05C02F3F19F00196A11D48
:1004D000B11D3FBFBA2FA92F982F8827BC01CD018E
:1004E000620F711D811D911D42E0660F771F881FED
:1004F000991F4A95D1F708958F929F92AF92BF921C
:10050000CF92DF92EF92FF926B017C010E94570223
:100510004B015C01C114D104E104F104B9F00E9463
:100520005702681979098A099B09683E7340810559
:10053000910580F321E0C21AD108E108F10888EEA4
:10054000880E83E0981EA11CB11CE4CFFF90EF90B1
:10055000DF90CF90BF90AF909F908F9008951F93A2
:10056000CF93DF93EC01162F61E088E00E94B30186
:10057000612F8DE00E94B30160E088E00E94B3012A
:10058000BE018BE0DF91CF911F910C94FF011F936F
:10059000CF93DF93EC01162F61E089E00E94B30155
:1005A000612F8CE00E94B30160E089E00E94B301FA
:1005B000BE0183E0DF91CF911F910C94FF01CF9397
:1005C000DF93EC0188819981009711F00E940F0759
:1005D000198218821D821C821B821A82DF91CF91A0
:1005E0000895FC0180819181009711F00C940F0710
:1005F00008950F931F93CF93DF93EC018881998126
:10060000009759F02A813B812617370730F081E0A7
:10061000DF91CF911F910F9108958B016F5F7F4FF5
:100620000E949807009759F0998388831B830A8357
:100630002C813D81232B59F7FC011082E8CF80E00B
:10064000E7CFEF92FF920F931F93CF93DF93611544
:10065000710541F480E0DF91CF911F910F91FF90E0
:10066000EF90089541155105B1F07B01EC010C812B
:100670001D81040F151FB8010E94F902882351F350
:10068000288139818C819D81B701820F931F0E943F
:100690005E081D830C8381E0DECFEF92FF920F9303
:1006A0001F93CF93DF93EC017B018A01BA010E9473
:1006B000F90281110BC0CE010E94DF02CE01DF9151
:1006C000CF911F910F91FF90EF9008951D830C83A0
:1006D000B701888199810E945E08F0CFEF92FF9266
:1006E0000F931F93CF93DF93CDB7DEB762970FB60B
:1006F000F894DEBF0FBECDBF8C01CB01F801118293
:10070000108213821282158214824AE09E012F5FAA
:100710003F4F7901B9010E940106F70101900020C5
:10072000E9F73197AF014E195F09B701C8010E947F
:100730004D0362960FB6F894DEBF0FBECDBFDF91BA
:10074000CF911F910F91FF90EF9008951F920F92FC
:100750000FB60F9211242F933F934F935F936F9394
:100760007F938F939F93AF93BF93EF93FF9385E313
:1007700091E00E942401FF91EF91BF91AF919F9171
:100780008F917F916F915F914F913F912F910F903A
:100790000FBE0F901F9018951F920F920FB60F92D9
:1007A00011242F938F939F93EF93FF93E091450133
:1007B000F09146018081E0914B01F0914C0182FD66
:1007C0001BC0908180914E018F5F8F7320914F01EC
:1007D000821741F0E0914E01F0E0EB5CFE4F958F07
:1007E00080934E01FF91EF919F918F912F910F90E8
:1007F0000FBE0F901F9018958081F4CF1F920F921B
:100800000FB60F9211242F933F938F939F93AF9323
:10081000BF9380912D0190912E01A0912F01B09155
:10082000300130912C0123E0230F2D3758F501962C
:10083000A11DB11D20932C0180932D0190932E01B9
:10084000A0932F01B093300180913101909132013A
:10085000A0913301B09134010196A11DB11D809387
:10086000310190933201A0933301B0933401BF91D1
:10087000AF919F918F913F912F910F900FBE0F904D
:100880001F90189526E8230F0296A11DB11DD2CF07
:10089000CF93DF93CDB7DEB768970FB6F894DEBF7E
:1008A0000FBECDBF789484B5826084BD84B581606D
:1008B00084BD85B5826085BD85B5816085BD80912B
:1008C0006E00816080936E001092810080918100A3
:1008D000826080938100809181008160809381009B
:1008E000809180008160809380008091B10084605D
:1008F0008093B1008091B00081608093B0008091BE
:100900007A00846080937A0080917A00826080937C
:100910007A0080917A00816080937A0080917A00D9
:10092000806880937A001092C1008CE00E9487005A
:1009300083E00E94870089E00E9487008DE00E948A
:1009400087008BE00E94870088E00E948700E0918A
:100950004501F091460182E08083E0914101F091F0
:1009600042011082E0914301F091440180E18083D3
:1009700010924D01E0914901F0914A0186E0808397
:10098000E0914701F0914801808180618083E0918E
:100990004701F0914801808188608083E0914701A0
:1009A000F0914801808180688083E0914701F09157
:1009B000480180818F7D80838091B100887F816034
:1009C0008093B1008091B000887F81608093B000F7
:1009D00080E0A82E80E0B82EC12CD12C760110E04A
:1009E00000E061E080EC90E00E94C70265EF75E0F6
:1009F00080E090E00E947C0260E090E080E00E9455
:100A0000C7026AEF70E080E090E00E947C0260E044
:100A100080EC90E00E94C702C701B6010E947C02F0
:100A200060E090E080E00E94C70264EF71E080E047
:100A300090E00E947C0260E080EC90E00E94AF02B7
:100A400065EF75E080E090E00E947C0260E090E05D
:100A500080E00E94AF026AEF70E080E090E00E94C8
:100A60007C0261E080EC90E00E94AF02C701B60119
:100A700068537F4F8F4F9F4F0E947C0260E090E051
:100A800080E00E94AF0264EF71E080E090E00E949D
:100A90007C02B801CE0107960E946E03B801CE0118
:100AA0000D960E946E031C8A1B8A1E8A1D8A188E50
:100AB0001F8A4CE050E068E171E0CE0143960E944D
:100AC0004D0349895A896D857E85CE0143960E94E2
:100AD0002103811104C0CE0143960E94DF0242E04F
:100AE00050E065E271E0CE0143960E94210381113E
:100AF00004C0CE0143960E94DF024B855C856F8166
:100B00007885CE0143960E942103811104C0CE0155
:100B100043960E94DF021A8219821C821B821E8267
:100B20001D826B897C896115710531F04F89588D63
:100B3000CE0101960E944D034D815E8169817A81CB
:100B400085E391E00E94A60042E050E068E271E097
:100B500085E391E00E94A600CE0101960E94F10279
:100B6000CE0143960E94F102CE010D960E94F10241
:100B7000CE0107960E94F1020F5F1F4F85EAC80E53
:100B800081E0D81EE11CF11C0530110509F029CFC8
:100B9000A114B10409F420CF0E941001882309F4A4
:100BA0001BCF0E94000018CFE5E3F1E01382128210
:100BB00088EE93E0A0E0B0E084839583A683B783BA
:100BC0008AE091E09183808385EC90E0958784872B
:100BD00084EC90E09787868780EC90E0918B808B07
:100BE00081EC90E0938B828B82EC90E0958B848BF0
:100BF00086EC90E0978B868B118E128E138E148E5E
:100C00000895BB274A3031F4992322F4BDE2909530
:100C100081959F4F0C940D06BB27FB015527AA27F2
:100C2000880F991FAA1FA41710F0A41B8395505179
:100C3000B9F7A05DAA3308F0A95DA193009779F7F1
:100C4000B111B1931192CB010C942606DC01FC0189
:100C5000672F71917723E1F7329704C07C916D93F0
:100C600070836291AE17BF07C8F308952F923F9229
:100C70004F925F926F927F928F929F92AF92BF92AC
:100C8000CF92DF92EF92FF920F931F93CF93DF9358
:100C9000CDB7DEB7CA1BDB0B0FB6F894DEBF0FBEB5
:100CA000CDBF09942A88398848885F846E847D8402
:100CB0008C849B84AA84B984C884DF80EE80FD8004
:100CC0000C811B81AA81B981CE0FD11D0FB6F8947A
:100CD000DEBF0FBECDBFED010895EE0FFF1F0590E3
:100CE000F491E02D09940F931F93CF93DF938230FB
:100CF000910510F482E090E0E091D401F091D501EB
:100D000030E020E0B0E0A0E0309799F42115310503
:100D100009F44AC0281B390B24303105D8F58A81E3
:100D20009B816115710589F1FB0193838283FE012B
:100D300011C0408151810281138148175907E0F0A9
:100D40004817590799F4109761F012960C9312976F
:100D500013961C933296CF01DF91CF911F910F9183
:100D600008950093D4011093D501F4CF21153105D6
:100D700051F04217530738F0A901DB019A01BD0178
:100D8000DF01F801C1CFEF01F9CF9093D501809336
:100D9000D401CDCFFE01E20FF31F81939193225036
:100DA000310939832883D7CF2091D2013091D301E3
:100DB000232B41F420910201309103013093D301A0
:100DC0002093D201209100013091010121153105BC
:100DD00041F42DB73EB74091040150910501241B09
:100DE000350BE091D201F091D301E217F307A0F4A3
:100DF0002E1B3F0B2817390778F0AC014E5F5F4F71
:100E00002417350748F04E0F5F1F5093D3014093CE
:100E1000D201819391939FCFF0E0E0E09CCFCF93FC
:100E2000DF930097E9F0FC01329713821282A091C0
:100E3000D401B091D501ED0130E020E01097A1F48C
:100E400020813181820F931F2091D2013091D301F3
:100E50002817390709F061C0F093D301E093D2015C
:100E6000DF91CF910895EA01CE17DF07E8F54A81B7
:100E70005B819E0141155105B1F7E901FB83EA83CE
:100E800049915991C40FD51FEC17FD0761F480817A
:100E900091810296840F951FE9019983888382814D
:100EA00093819B838A83F0E0E0E012968D919C9180
:100EB00013970097B9F52D913C911197CD010296AA
:100EC000820F931F2091D2013091D3012817390747
:100ED00039F6309751F51092D5011092D401B093A4
:100EE000D301A093D201BCCFD383C283408151816F
:100EF000840F951FC817D90761F44E5F5F4F888133
:100F00009981480F591F518340838A819B81938324
:100F100082832115310509F0B0CFF093D501E0931C
:100F2000D4019ECFFD01DC01C0CF13821282D7CF46
:100F3000B0E0A0E0EEE9F7E00C9438068C010097F1
:100F400051F4CB010E9473068C01C801CDB7DEB706
:100F5000E0E10C945406FC01E60FF71F9C012250BF
:100F60003109E217F30708F49DC0D901CD91DC9156
:100F70001197C617D70798F0C530D10530F3CE01C9
:100F800004978617970708F3C61BD70B2297C193C0
:100F9000D1936D937C93CF010E940F07D6CF5B0155
:100FA000AC1ABD0A4C018C0E9D1EA091D401B091CB
:100FB000D501512C412CF12CE12C109731F5809169
:100FC000D2019091D3018815990509F05CC04616AD
:100FD000570608F058C080910001909101010097D8
:100FE00041F48DB79EB74091040150910501841BD7
:100FF000950BE817F90708F055C0F093D301E0937B
:10100000D201F90171836083A0CF8D919C911197DA
:1010100012966C90129713967C901397A815B905A9
:1010200059F56C0142E0C40ED11CCA14DB0420F156
:10103000AC014A195B09DA011296159780F06282B9
:10104000738251834083D9016D937C93E114F10441
:1010500071F0D7011396FC93EE93129776CF2296F8
:101060008C0F9D1FF90191838083F301EFCFF093E3
:10107000D501E093D40169CF4816590608F42C0134
:101080007D01D3019ACFCB010E9473067C010097AA
:1010900049F0AE01B8010E945508C8010E940F072F
:1010A000870153CF10E000E050CFFB01DC0102C00C
:1010B00001900D9241505040D8F70895FB01DC019A
:0E10C00001900D920020E1F70895F894FFCF03
:1010CE000000D6018000000000004601A600D300FB
:1010DE0093010401E200F600476F696E6720746F9A
:0C10EE0020582C59002C20000D0A000096
:00000001FF
