:020000040000FA
:100000000C945D000C9485000C9485000C94850084
:100010000C9485000C9485000C9485000C9485004C
:100020000C9485000C9485000C9485000C9485003C
:100030000C9485000C9485000C9485000C9485002C
:100040000C9423040C9485000C94F1030C94CB03C2
:100050000C9485000C9485000C9485000C9485000C
:100060000C9485000C94850000000008000201003B
:100070000003040700000000000000000000000072
:10008000250028002B0000000000240027002A0083
:10009000040404040404040402020202020203032E
:1000A0000303030301020408102040800102040836
:1000B00010200102040810200A0611241FBECFEFF1
:1000C000D8E0DEBFCDBF21E0A4E3B1E001C01D92C6
:1000D000AE3DB207E1F711E0A0E0B1E0EAE3F1E103
:1000E00002C005900D92A433B107D9F710E0CDE519
:1000F000D0E004C02197FE010E94A306CC35D107B1
:10010000C9F70E946D040C949B080C94000090E0C9
:10011000FC01EC55FF4F249180579F4FFC018491C7
:10012000882399F090E0880F991FFC01EA57FF4F50
:10013000A591B491FC01E458FF4F859194918FB73C
:10014000F894EC91E22BEC938FBF0895AF92BF929D
:10015000CF92DF92EF92FF920F931F93CF93DF9393
:100160006C017B018B01040F151FEB015E01AE18C2
:10017000BF08C017D10759F06991D601ED91FC91E4
:100180000190F081E02DC6010995892B79F7C50111
:10019000DF91CF911F910F91FF90EF90DF90CF9063
:1001A000BF90AF900895FC01538D448D252F30E012
:1001B000842F90E0821B930B541710F0CF96089574
:1001C00001970895FC01918D828D981761F0A28DA1
:1001D000AE0FBF2FB11D5D968C91928D9F5F9F7367
:1001E000928F90E008958FEF9FEF0895FC01918D1D
:1001F000828D981731F0828DE80FF11D858D90E08A
:1002000008958FEF9FEF0895FC01918D228D892F26
:1002100090E0805C9F4F821B91098F73992708950E
:100220008DE391E00E94040121E0892B09F420E094
:10023000822F089580E090E0892B29F00E94100120
:1002400081110C9400000895FC01A48DA80FB92F12
:10025000B11DA35ABF4F2C91848D90E001968F73EE
:100260009927848FA689B7892C93A089B1898C910D
:10027000837080648C93938D848D981306C002885C
:10028000F389E02D80818F7D80830895EF92FF9226
:100290000F931F93CF93DF93EC0181E0888F9B8DA9
:1002A0008C8D98131AC0E889F989808185FF15C063
:1002B0009FB7F894EE89FF896083E889F989808186
:1002C0008370806480839FBF81E090E0DF91CF9155
:1002D0001F910F91FF90EF900895F62E0B8D10E077
:1002E0000F5F1F4F0F731127E02E8C8D8E110CC0E6
:1002F0000FB607FCFACFE889F989808185FFF5CF31
:10030000CE010E942401F1CFEB8DEC0FFD2FF11DEA
:10031000E35AFF4FF0829FB7F8940B8FEA89FB896D
:1003200080818062CFCFCF93DF93EC01888D8823CB
:10033000B9F0AA89BB89E889F9898C9185FD03C048
:10034000808186FD0DC00FB607FCF7CF8C9185FF2D
:10035000F2CF808185FFEDCFCE010E942401E9CF4D
:10036000DF91CF91089590E0FC01E859FF4F24916F
:10037000FC01EC55FF4F3491FC01E057FF4FE49135
:10038000EE23C9F0222339F0233001F1A8F4213003
:1003900019F1223029F1F0E0EE0FFF1FE458FF4F72
:1003A000A591B4918FB7F894EC91611126C0309566
:1003B0003E233C938FBF08952730A9F02830C9F021
:1003C000243049F7809180008F7D03C080918000A8
:1003D0008F7780938000DFCF84B58F7784BDDBCFAC
:1003E00084B58F7DFBCF8091B0008F778093B00074
:1003F000D2CF8091B0008F7DF9CF3E2BDACF1F9303
:10040000CF93DF93182FEB010E948700209739F4D8
:1004100060E0812FDF91CF911F910C94B301E12F08
:10042000F0E0E859FF4FE491E33039F148F4E1306E
:10043000B9F0E230E9F0C038D10554F361E0E9CF1A
:10044000E73029F1E83059F1E430A9F780918000D4
:10045000806280938000D0938B00C0938A0004C098
:1004600084B5806884BDC7BDDF91CF911F91089589
:1004700084B5806284BDC8BDF7CF8091800080685C
:1004800080938000D0938900C0938800EDCF809145
:10049000B00080688093B000C093B300E5CF809136
:1004A000B00080628093B000C093B400DDCF3FB74E
:1004B000F8948091390190913A01A0913B01B0915B
:1004C0003C0126B5A89B05C02F3F19F00196A11D40
:1004D000B11D3FBFBA2FA92F982F8827BC01CD018E
:1004E000620F711D811D911D42E0660F771F881FED
:1004F000991F4A95D1F708958F929F92AF92BF921C
:10050000CF92DF92EF92FF926B017C010E94570223
:100510004B015C01C114D104E104F104B9F00E9463
:100520005702681979098A099B09683E7340810559
:10053000910580F321E0C21AD108E108F10888EEA4
:10054000880E83E0981EA11CB11CE4CFFF90EF90B1
:10055000DF90CF90BF90AF909F908F900895CF93F2
:10056000C82F70E060E085E00E94FF016C2F84E0FE
:100570000E94B30160EC70E085E00E94FF0164EF2F
:1005800071E080E090E00E947C0270E060E085E035
:100590000E94FF0160E084E00E94B30170E060E02F
:1005A00085E0CF910C94FF011F93CF93DF93EC0173
:1005B000162F61E088E00E94B301612F8DE00E9458
:1005C000B30160E088E00E94B301BE018BE0DF91DF
:1005D000CF911F910C94FF011F93CF93DF93EC01F8
:1005E000162F61E089E00E94B301612F8CE00E9428
:1005F000B30160E089E00E94B301BE0183E0DF91B6
:10060000CF911F910C94FF01CF93DF93EC01888170
:100610009981009711F00E944507198218821D8266
:100620001C821B821A82DF91CF910895FC01808188
:100630009181009711F00C94450708950F931F9333
:10064000CF93DF93EC0188819981009759F02A813B
:100650003B812617370730F081E0DF91CF911F9162
:100660000F9108958B016F5F7F4F0E94CE07009717
:1006700059F0998388831B830A832C813D81232B26
:1006800059F7FC011082E8CF80E0E7CFEF92FF92AC
:100690000F931F93CF93DF936115710541F480E0B1
:1006A000DF91CF911F910F91FF90EF900895411529
:1006B0005105B1F07B01EC010C811D81040F151F68
:1006C000B8010E941E03882351F3288139818C814F
:1006D0009D81B701820F931F0E9494081D830C8394
:1006E00081E0DECFEF92FF920F931F93CF93DF93C2
:1006F000EC017B018A01BA010E941E0381110BC02B
:10070000CE010E940403CE01DF91CF911F910F9182
:10071000FF90EF9008951D830C83B7018881998124
:100720000E949408F0CFEF92FF920F931F93CF9304
:10073000DF93CDB7DEB762970FB6F894DEBF0FBE7A
:10074000CDBF8C01CB01F80111821082138212827D
:10075000158214824AE09E012F5F3F4F7901B90153
:100760000E943706F70101900020E9F73197AF01A9
:100770004E195F09B701C8010E94720362960FB655
:10078000F894DEBF0FBECDBFDF91CF911F910F91C7
:10079000FF90EF9008951F920F920FB60F921124C1
:1007A0002F933F934F935F936F937F938F939F9379
:1007B000AF93BF93EF93FF938DE391E00E942401E9
:1007C000FF91EF91BF91AF919F918F917F916F9129
:1007D0005F914F913F912F910F900FBE0F901F90FF
:1007E00018951F920F920FB60F9211242F938F938B
:1007F0009F93EF93FF93E0914D01F0914E01808123
:10080000E0915301F091540182FD1BC090818091D1
:1008100056018F5F8F7320915701821741F0E0914D
:100820005601F0E0E35CFE4F958F80935601FF91F7
:10083000EF919F918F912F910F900FBE0F901F906E
:1008400018958081F4CF1F920F920FB60F9211244A
:100850002F933F938F939F93AF93BF9380913501D5
:1008600090913601A0913701B09138013091340157
:1008700023E0230F2D3758F50196A11DB11D2093BC
:1008800034018093350190933601A0933701B093E2
:1008900038018091390190913A01A0913B01B091CA
:1008A0003C010196A11DB11D8093390190933A013D
:1008B000A0933B01B0933C01BF91AF919F918F9169
:1008C0003F912F910F900FBE0F901F90189526E823
:1008D000230F0296A11DB11DD2CFCF93DF93CDB7C9
:1008E000DEB768970FB6F894DEBF0FBECDBF789421
:1008F00084B5826084BD84B5816084BD85B5826025
:1009000085BD85B5816085BD80916E0081608093D5
:100910006E0010928100809181008260809381003E
:10092000809181008160809381008091800081604E
:10093000809380008091B10084608093B1008091A9
:10094000B00081608093B00080917A0084608093D1
:100950007A0080917A00826080937A0080917A0098
:10096000816080937A0080917A00806880937A0019
:100970001092C1008CE00E94870083E00E948700F3
:1009800089E00E9487008DE00E9487008BE00E9432
:10099000870088E00E948700E0914D01F0914E01B0
:1009A00082E08083E0914901F0914A011082E09158
:1009B0004B01F0914C0180E1808310925501E09150
:1009C0005101F091520186E08083E0914F01F09156
:1009D0005001808180618083E0914F01F09150014E
:1009E000808188608083E0914F01F0915001808187
:1009F00080688083E0914F01F091500180818F7D6C
:100A000080838091B100887F81608093B100809164
:100A1000B000887F81608093B0001A8219821C82A6
:100A20001B821E821D824BE050E068E171E0CE0126
:100A300001960E947203CE0101960E94160380E087
:100A40000E94AF0280E0A82E80E0B82EC12CD12CED
:100A5000760110E000E061E080EC90E00E94EC02A2
:100A600065EF75E080E090E00E947C0260E090E03D
:100A700080E00E94EC026AEF70E080E090E00E946B
:100A80007C0260E080EC90E00E94EC02C701B601BD
:100A90000E947C0260E090E080E00E94EC0264EF43
:100AA00071E080E090E00E947C0260E080EC90E0E9
:100AB0000E94D40265EF75E080E090E00E947C0225
:100AC00060E090E080E00E94D4026AEF70E080E095
:100AD00090E00E947C0261E080EC90E00E94D402F1
:100AE000C701B60168537F4F8F4F9F4F0E947C0212
:100AF00060E090E080E00E94D40264EF71E080E06A
:100B000090E00E947C0281E00E94AF026AEF70E0F8
:100B100080E090E00E947C0280E00E94AF02B80179
:100B2000CE0107960E949303B801CE010D960E9454
:100B300093031C8A1B8A1E8A1D8A188E1F8A4CE00A
:100B400050E064E271E0CE0143960E94720349894D
:100B50005A896D857E85CE0143960E944603811198
:100B600004C0CE0143960E94040342E050E061E3DA
:100B700071E0CE0143960E944603811104C0CE016C
:100B800043960E9404034B855C856F817885CE0176
:100B900043960E944603811104C0CE0143960E94F1
:100BA00004031A8219821C821B821E821D826B8999
:100BB0007C896115710531F04F89588DCE01019600
:100BC0000E947203CE0101960E941603CE01439645
:100BD0000E941603CE010D960E941603CE010796C1
:100BE0000E9416030F5F1F4F85EAC80E81E0D81ED2
:100BF000E11CF11C0530110509F02DCFA114B10441
:100C000009F424CF0E941001882309F41FCF0E9409
:100C100000001CCFEDE3F1E01382128288EE93E036
:100C2000A0E0B0E084839583A683B7838AE091E057
:100C30009183808385EC90E09587848784EC90E0B5
:100C40009787868780EC90E0918B808B81EC90E099
:100C5000938B828B82EC90E0958B848B86EC90E07A
:100C6000978B868B118E128E138E148E0895BB2750
:100C70004A3031F4992322F4BDE2909581959F4F3B
:100C80000C944306BB27FB015527AA27880F991F01
:100C9000AA1FA41710F0A41B83955051B9F7A05DAB
:100CA000AA3308F0A95DA193009779F7B111B19328
:100CB0001192CB010C945C06DC01FC01672F719151
:100CC0007723E1F7329704C07C916D937083629132
:100CD000AE17BF07C8F308952F923F924F925F92CD
:100CE0006F927F928F929F92AF92BF92CF92DF923C
:100CF000EF92FF920F931F93CF93DF93CDB7DEB7A1
:100D0000CA1BDB0B0FB6F894DEBF0FBECDBF099434
:100D10002A88398848885F846E847D848C849B848B
:100D2000AA84B984C884DF80EE80FD800C811B8199
:100D3000AA81B981CE0FD11D0FB6F894DEBF0FBEC8
:100D4000CDBFED010895EE0FFF1F0590F491E02D4A
:100D500009940F931F93CF93DF938230910510F482
:100D600082E090E0E091DC01F091DD0130E020E0F4
:100D7000B0E0A0E0309799F42115310509F44AC09C
:100D8000281B390B24303105D8F58A819B816115E8
:100D9000710589F1FB0193838283FE0111C04081BB
:100DA00051810281138148175907E0F0481759070C
:100DB00099F4109761F012960C93129713961C9366
:100DC0003296CF01DF91CF911F910F91089500933B
:100DD000DC011093DD01F4CF2115310551F04217EC
:100DE000530738F0A901DB019A01BD01DF01F801C9
:100DF000C1CFEF01F9CF9093DD018093DC01CDCF1E
:100E0000FE01E20FF31F8193919322503109398340
:100E10002883D7CF2091DA013091DB01232B41F4D5
:100E200020910201309103013093DB012093DA011C
:100E300020910001309101012115310541F42DB7B8
:100E40003EB74091040150910501241B350BE09100
:100E5000DA01F091DB01E217F307A0F42E1B3F0B40
:100E60002817390778F0AC014E5F5F4F241735071C
:100E700048F04E0F5F1F5093DB014093DA018193DE
:100E800091939FCFF0E0E0E09CCFCF93DF9300976A
:100E9000E9F0FC01329713821282A091DC01B0913B
:100EA000DD01ED0130E020E01097A1F420813181D7
:100EB000820F931F2091DA013091DB012817390747
:100EC00009F061C0F093DB01E093DA01DF91CF918B
:100ED0000895EA01CE17DF07E8F54A815B819E019C
:100EE00041155105B1F7E901FB83EA834991599115
:100EF000C40FD51FEC17FD0761F480819181029624
:100F0000840F951FE90199838883828193819B8354
:100F10008A83F0E0E0E012968D919C911397009700
:100F2000B9F52D913C911197CD010296820F931F37
:100F30002091DA013091DB012817390739F6309713
:100F400051F51092DD011092DC01B093DB01A0930A
:100F5000DA01BCCFD383C28340815181840F951FB6
:100F6000C817D90761F44E5F5F4F88819981480F98
:100F7000591F518340838A819B81938382832115EA
:100F8000310509F0B0CFF093DD01E093DC019ECF95
:100F9000FD01DC01C0CF13821282D7CFB0E0A0E008
:100FA000E4EDF7E00C946E068C01009751F4CB0150
:100FB0000E94A9068C01C801CDB7DEB7E0E10C9410
:100FC0008A06FC01E60FF71F9C0122503109E21747
:100FD000F30708F49DC0D901CD91DC911197C61794
:100FE000D70798F0C530D10530F3CE0104978617A6
:100FF000970708F3C61BD70B2297C193D1936D9324
:101000007C93CF010E944507D6CF5B01AC1ABD0A85
:101010004C018C0E9D1EA091DC01B091DD01512C84
:10102000412CF12CE12C109731F58091DA0190914F
:10103000DB018815990509F05CC04616570608F0D3
:1010400058C08091000190910101009741F48DB743
:101050009EB74091040150910501841B950BE81740
:10106000F90708F055C0F093DB01E093DA01F901CC
:1010700071836083A0CF8D919C91119712966C9093
:10108000129713967C901397A815B90559F56C0122
:1010900042E0C40ED11CCA14DB0420F1AC014A1991
:1010A0005B09DA011296159780F062827382518390
:1010B0004083D9016D937C93E114F10471F0D70161
:1010C0001396FC93EE93129776CF22968C0F9D1F6A
:1010D000F90191838083F301EFCFF093DD01E09379
:1010E000DC0169CF4816590608F42C017D01D301B3
:1010F0009ACFCB010E94A9067C01009749F0AE016E
:10110000B8010E948B08C8010E944507870153CF90
:1011100010E000E050CFFB01DC0102C001900D9215
:1011200041505040D8F70895FB01DC0101900D9229
:101130000020E1F70895F894FFCF0000DE01800061
:10114000000000004601A600D30093010401E20064
:10115000F600526573657474696E67205A00476FB4
:0E116000696E6720746F20582C59002C2000F7
:107E0000112484B714BE81FFF0D085E080938100F7
:107E100082E08093C00088E18093C10086E0809377
:107E2000C20080E18093C4008EE0C9D0259A86E02C
:107E300020E33CEF91E0309385002093840096BBD3
:107E4000B09BFECF1D9AA8958150A9F7CC24DD24C4
:107E500088248394B5E0AB2EA1E19A2EF3E0BF2EE7
:107E6000A2D0813461F49FD0082FAFD0023811F036
:107E7000013811F484E001C083E08DD089C08234E0
:107E800011F484E103C0853419F485E0A6D080C0E4
:107E9000853579F488D0E82EFF2485D0082F10E0AE
:107EA000102F00270E291F29000F111F8ED06801E7
:107EB0006FC0863521F484E090D080E0DECF843638
:107EC00009F040C070D06FD0082F6DD080E0C81688
:107ED00080E7D80618F4F601B7BEE895C0E0D1E017
:107EE00062D089930C17E1F7F0E0CF16F0E7DF06D8
:107EF00018F0F601B7BEE89568D007B600FCFDCFD4
:107F0000A601A0E0B1E02C9130E011968C91119780
:107F100090E0982F8827822B932B1296FA010C0160
:107F200087BEE89511244E5F5F4FF1E0A038BF0790
:107F300051F7F601A7BEE89507B600FCFDCF97BE46
:107F4000E89526C08437B1F42ED02DD0F82E2BD052
:107F50003CD0F601EF2C8F010F5F1F4F84911BD097
:107F6000EA94F801C1F70894C11CD11CFA94CF0C13
:107F7000D11C0EC0853739F428D08EE10CD085E9AC
:107F80000AD08FE07ACF813511F488E018D01DD067
:107F900080E101D065CF982F8091C00085FFFCCF94
:107FA0009093C60008958091C00087FFFCCF809118
:107FB000C00084FD01C0A8958091C6000895E0E648
:107FC000F0E098E1908380830895EDDF803219F02E
:107FD00088E0F5DFFFCF84E1DECF1F93182FE3DFCA
:107FE0001150E9F7F2DF1F91089580E0E8DFEE27F6
:047FF000FF270994CA
:027FFE00040479
:00000001FF
