:020000040000FA
:100000000C945D000C9485000C9485000C94850084
:100010000C9485000C9485000C9485000C9485004C
:100020000C9485000C9485000C9485000C9485003C
:100030000C9485000C9485000C9485000C9485002C
:100040000C943C040C9485000C940A040C94E40376
:100050000C9485000C9485000C9485000C9485000C
:100060000C9485000C94850000000008000201003B
:100070000003040700000000000000000000000072
:10008000250028002B0000000000240027002A0083
:10009000040404040404040402020202020203032E
:1000A0000303030301020408102040800102040836
:1000B00010200102040810202B0611241FBECFEFD0
:1000C000D8E0DEBFCDBF21E0A8E3B1E001C01D92C2
:1000D000A23EB207E1F711E0A0E0B1E0ECE7F1E108
:1000E00002C005900D92A833B107D9F710E0CDE515
:1000F000D0E004C02197FE010E94C406CC35D10790
:10010000C9F70E9486040C94BC080C94000090E08F
:10011000FC01EC55FF4F249180579F4FFC018491C7
:10012000882399F090E0880F991FFC01EA57FF4F50
:10013000A591B491FC01E458FF4F859194918FB73C
:10014000F894EC91E22BEC938FBF0895AF92BF929D
:10015000CF92DF92EF92FF920F931F93CF93DF9393
:100160006C017B018B01040F151FEB015E01AE18C2
:10017000BF08C017D10759F06991D601ED91FC91E4
:100180000190F081E02DC6010995892B79F7C50111
:10019000DF91CF911F910F91FF90EF90DF90CF9063
:1001A000BF90AF900895CF93DF93FC0144815581B8
:1001B0006081718181E491E00E94A600EC0142E03F
:1001C00050E068E171E081E491E00E94A6008C0FAC
:1001D0009D1FDF91CF910895FC01538D448D252FF4
:1001E00030E0842F90E0821B930B541710F0CF96D1
:1001F000089501970895FC01918D828D981761F003
:10020000A28DAE0FBF2FB11D5D968C91928D9F5F19
:100210009F73928F90E008958FEF9FEF0895FC01F8
:10022000918D828D981731F0828DE80FF11D858DAB
:1002300090E008958FEF9FEF0895FC01918D228D3E
:10024000892F90E0805C9F4F821B91098F739927C3
:10025000089581E491E00E941D0121E0892B09F4B9
:1002600020E0822F089580E090E0892B29F00E9401
:10027000290181110C9400000895FC01A48DA80FA0
:10028000B92FB11DA35ABF4F2C91848D90E00196D8
:100290008F739927848FA689B7892C93A089B189F8
:1002A0008C91837080648C93938D848D981306C099
:1002B0000288F389E02D80818F7D80830895EF92FD
:1002C000FF920F931F93CF93DF93EC0181E0888F10
:1002D0009B8D8C8D98131AC0E889F989808185FFE0
:1002E00015C09FB7F894EE89FF896083E889F98982
:1002F00080818370806480839FBF81E090E0DF9184
:10030000CF911F910F91FF90EF900895F62E0B8DD6
:1003100010E00F5F1F4F0F731127E02E8C8D8E1191
:100320000CC00FB607FCFACFE889F989808185FFF8
:10033000F5CFCE010E943D01F1CFEB8DEC0FFD2FEB
:10034000F11DE35AFF4FF0829FB7F8940B8FEA89B3
:10035000FB8980818062CFCFCF93DF93EC01888DC2
:100360008823B9F0AA89BB89E889F9898C9185FD30
:1003700003C0808186FD0DC00FB607FCF7CF8C91BE
:1003800085FFF2CF808185FFEDCFCE010E943D0138
:10039000E9CFDF91CF91089590E0FC01E859FF4F3C
:1003A0002491FC01EC55FF4F3491FC01E057FF4FC5
:1003B000E491EE23C9F0222339F0233001F1A8F4AF
:1003C000213019F1223029F1F0E0EE0FFF1FE4583F
:1003D000FF4FA591B4918FB7F894EC91611126C0AD
:1003E00030953E233C938FBF08952730A9F02830E5
:1003F000C9F0243049F7809180008F7D03C080913F
:1004000080008F7780938000DFCF84B58F7784BDA5
:10041000DBCF84B58F7DFBCF8091B0008F77809349
:10042000B000D2CF8091B0008F7DF9CF3E2BDACFD4
:100430001F93CF93DF93182FEB010E948700209723
:1004400039F460E0812FDF91CF911F910C94CC01A2
:10045000E12FF0E0E859FF4FE491E33039F148F43F
:10046000E130B9F0E230E9F0C038D10554F361E091
:10047000E9CFE73029F1E83059F1E430A9F780916C
:100480008000806280938000D0938B00C0938A00AC
:1004900004C084B5806884BDC7BDDF91CF911F9132
:1004A000089584B5806284BDC8BDF7CF8091800077
:1004B000806880938000D0938900C0938800EDCF3E
:1004C0008091B00080688093B000C093B300E5CF06
:1004D0008091B00080628093B000C093B400DDCF03
:1004E0003FB7F89480913D0190913E01A0913F016A
:1004F000B091400126B5A89B05C02F3F19F0019689
:10050000A11DB11D3FBFBA2FA92F982F8827BC016D
:10051000CD01620F711D811D911D42E0660F771F95
:10052000881F991F4A95D1F708958F929F92AF9295
:10053000BF92CF92DF92EF92FF926B017C010E94FB
:1005400070024B015C01C114D104E104F104B9F063
:100550000E947002681979098A099B09683E7340F4
:100560008105910580F321E0C21AD108E108F10864
:1005700088EE880E83E0981EA11CB11CE4CFFF908A
:10058000EF90DF90CF90BF90AF909F908F900895A5
:10059000CF93C82F70E060E085E00E9418026C2FB6
:1005A00084E00E94CC0160EC70E085E00E941802BB
:1005B00064EF71E080E090E00E94950270E060E0FE
:1005C00085E00E94180260E084E00E94CC0170E0A7
:1005D00060E085E0CF910C9418021F93CF93DF93D6
:1005E000EC01162F61E088E00E94CC01612F8DE0C4
:1005F0000E94CC0160E088E00E94CC01BE018BE04B
:10060000DF91CF911F910C9418021F93CF93DF932A
:10061000EC01162F61E089E00E94CC01612F8CE093
:100620000E94CC0160E089E00E94CC01BE0183E021
:10063000DF91CF911F910C941802CF93DF93EC01BF
:1006400088819981009711F00E94660719821882AB
:100650001D821C821B821A82DF91CF910895FC01BA
:1006600080819181009711F00C94660708950F9393
:100670001F93CF93DF93EC0188819981009759F004
:100680002A813B812617370730F081E0DF91CF9137
:100690001F910F9108958B016F5F7F4F0E94EF07AD
:1006A000009759F0998388831B830A832C813D81AD
:1006B000232B59F7FC011082E8CF80E0E7CFEF92BF
:1006C000FF920F931F93CF93DF936115710541F450
:1006D00080E0DF91CF911F910F91FF90EF900895EF
:1006E00041155105B1F07B01EC010C811D81040F16
:1006F000151FB8010E943703882351F328813981DF
:100700008C819D81B701820F931F0E94B5081D83C4
:100710000C8381E0DECFEF92FF920F931F93CF9374
:10072000DF93EC017B018A01BA010E94370381113A
:100730000BC0CE010E941D03CE01DF91CF911F910E
:100740000F91FF90EF9008951D830C83B70188816E
:1007500099810E94B508F0CFEF92FF920F931F93FB
:10076000CF93DF93CDB7DEB762970FB6F894DEBFB5
:100770000FBECDBF8C01CB01F80111821082138214
:100780001282158214824AE09E012F5F3F4F790149
:10079000B9010E945806F70101900020E9F731974E
:1007A000AF014E195F09B701C8010E948B03629621
:1007B0000FB6F894DEBF0FBECDBFDF91CF911F9172
:1007C0000F91FF90EF9008951F920F920FB60F9226
:1007D00011242F933F934F935F936F937F938F9346
:1007E0009F93AF93BF93EF93FF9381E491E00E94B7
:1007F0003D01FF91EF91BF91AF919F918F917F91BB
:100800006F915F914F913F912F910F900FBE0F907D
:100810001F9018951F920F920FB60F9211242F93CD
:100820008F939F93EF93FF93E0915101F0915201C9
:100830008081E0915701F091580182FD1BC09081A9
:1008400080915A018F5F8F7320915B01821741F075
:10085000E0915A01F0E0EF5BFE4F958F80935A01D3
:10086000FF91EF919F918F912F910F900FBE0F905D
:100870001F9018958081F4CF1F920F920FB60F92A0
:1008800011242F933F938F939F93AF93BF938091A6
:10089000390190913A01A0913B01B0913C01309116
:1008A000380123E0230F2D3758F50196A11DB11D06
:1008B000209338018093390190933A01A0933B0132
:1008C000B0933C0180913D0190913E01A0913F0188
:1008D000B09140010196A11DB11D80933D019093FF
:1008E0003E01A0933F01B0934001BF91AF919F9112
:1008F0008F913F912F910F900FBE0F901F901895E1
:1009000026E8230F0296A11DB11DD2CFCF93DF930E
:10091000CDB7DEB768970FB6F894DEBF0FBECDBF78
:10092000789484B5826084BD84B5816084BD85B5CA
:10093000826085BD85B5816085BD80916E008160D6
:1009400080936E001092810080918100826080937C
:10095000810080918100816080938100809180007E
:100960008160809380008091B10084608093B100A9
:100970008091B00081608093B00080917A008460A3
:1009800080937A0080917A00826080937A008091CF
:100990007A00816080937A0080917A0080688093E9
:1009A0007A001092C1008CE00E94870083E00E94D0
:1009B000870089E00E9487008DE00E9487008BE01D
:1009C0000E94870088E00E948700E0915101F09129
:1009D000520182E08083E0914D01F0914E0110823E
:1009E000E0914F01F091500180E180831092590114
:1009F000E0915501F091560186E08083E09153012A
:100A0000F0915401808180618083E0915301F091E5
:100A10005401808188608083E0915301F0915401FA
:100A2000808180688083E0915301F091540180813E
:100A30008F7D80838091B100887F81608093B10039
:100A40008091B000887F81608093B0001A82198203
:100A50001C821B821E821D824BE050E06BE171E024
:100A6000CE0101960E948B03CE0101960E94D30015
:100A7000CE0101960E942F0380E00E94C80280E010
:100A8000A82E80E0B82EC12CD12C760110E000E019
:100A900061E080EC90E00E94050365EF75E080E086
:100AA00090E00E94950260E090E080E00E940503E3
:100AB0006AEF70E080E090E00E94950260E080ECD8
:100AC00090E00E940503C701B6010E94950260E014
:100AD00090E080E00E94050364EF71E080E090E028
:100AE0000E94950260E080EC90E00E94ED0265EFCC
:100AF00075E080E090E00E94950260E090E080E088
:100B00000E94ED026AEF70E080E090E00E949502A2
:100B100061E080EC90E00E94ED02C701B6016853ED
:100B20007F4F8F4F9F4F0E94950260E090E080E0E2
:100B30000E94ED0264EF71E080E090E00E94950277
:100B400081E00E94C8026AEF70E080E090E00E94BD
:100B5000950280E00E94C802B801CE0107960E946B
:100B6000AC03B801CE010D960E94AC031C8A1B8A0F
:100B70001E8A1D8A188E1F8A4DE050E067E271E0E0
:100B8000CE0143960E948B0349895A896D857E85E3
:100B9000CE0143960E945F03811104C0CE014396AB
:100BA0000E941D0342E050E065E371E0CE014396F0
:100BB0000E945F03811104C0CE0143960E941D0371
:100BC0004B855C856F817885CE0143960E945F03DB
:100BD000811104C0CE0143960E941D031A8219821E
:100BE0001C821B821E821D826B897C8961157105A6
:100BF00031F04F89588DCE0101960E948B03CE01B2
:100C000001960E94D300CE0101960E942F03CE01CF
:100C100043960E942F03CE010D960E942F03CE0112
:100C200007960E942F030F5F1F4F85EAC80E81E0D1
:100C3000D81EE11CF11C0530110509F029CFA114C3
:100C4000B10409F420CF0E942901882309F41BCFA5
:100C50000E94000018CFE1E4F1E01382128288EED6
:100C600093E0A0E0B0E084839583A683B7838AE015
:100C700091E09183808385EC90E09587848784EC74
:100C800090E09787868780EC90E0918B808B81EC59
:100C900090E0938B828B82EC90E0958B848B86EC3A
:100CA00090E0978B868B118E128E138E148E089582
:100CB000BB274A3031F4992322F4BDE29095819507
:100CC0009F4F0C946406BB27FB015527AA27880F6A
:100CD000991FAA1FA41710F0A41B83955051B9F7B0
:100CE000A05DAA3308F0A95DA193009779F7B1112F
:100CF000B1931192CB010C947D06DC01FC01672FAE
:100D000071917723E1F7329704C07C916D937083E2
:100D10006291AE17BF07C8F308952F923F924F928A
:100D20005F926F927F928F929F92AF92BF92CF927B
:100D3000DF92EF92FF920F931F93CF93DF93CDB784
:100D4000DEB7CA1BDB0B0FB6F894DEBF0FBECDBFFC
:100D500009942A88398848885F846E847D848C84CD
:100D60009B84AA84B984C884DF80EE80FD800C81D6
:100D70001B81AA81B981CE0FD11D0FB6F894DEBFB9
:100D80000FBECDBFED010895EE0FFF1F0590F4914A
:100D9000E02D09940F931F93CF93DF938230910539
:100DA00010F482E090E0E091E001F091E10130E0A8
:100DB00020E0B0E0A0E0309799F42115310509F466
:100DC0004AC0281B390B24303105D8F58A819B8114
:100DD0006115710589F1FB0193838283FE0111C0C6
:100DE000408151810281138148175907E0F048176B
:100DF000590799F4109761F012960C931297139675
:100E00001C933296CF01DF91CF911F910F910895DE
:100E10000093E0011093E101F4CF2115310551F069
:100E20004217530738F0A901DB019A01BD01DF0128
:100E3000F801C1CFEF01F9CF9093E1018093E00178
:100E4000CDCFFE01E20FF31F819391932250310920
:100E500039832883D7CF2091DE013091DF01232B06
:100E600041F420910201309103013093DF0120937E
:100E7000DE0120910001309101012115310541F47D
:100E80002DB73EB74091040150910501241B350B4D
:100E9000E091DE01F091DF01E217F307A0F42E1BD1
:100EA0003F0B2817390778F0AC014E5F5F4F2417CE
:100EB000350748F04E0F5F1F5093DF014093DE016E
:100EC000819391939FCFF0E0E0E09CCFCF93DF93AD
:100ED0000097E9F0FC01329713821282A091E001A1
:100EE000B091E101ED0130E020E01097A1F4208104
:100EF0003181820F931F2091DE013091DF0128178D
:100F0000390709F061C0F093DF01E093DE01DF9162
:100F1000CF910895EA01CE17DF07E8F54A815B819A
:100F20009E0141155105B1F7E901FB83EA8349911F
:100F30005991C40FD51FEC17FD0761F48081918191
:100F40000296840F951FE90199838883828193819A
:100F50009B838A83F0E0E0E012968D919C91139739
:100F60000097B9F52D913C911197CD010296820F12
:100F7000931F2091DE013091DF012817390739F6E0
:100F8000309751F51092E1011092E001B093DF012A
:100F9000A093DE01BCCFD383C28340815181840FF3
:100FA000951FC817D90761F44E5F5F4F88819981FB
:100FB000480F591F518340838A819B819383828389
:100FC0002115310509F0B0CFF093E101E093E00184
:100FD0009ECFFD01DC01C0CF13821282D7CFB0E0DB
:100FE000A0E0E5EFF7E00C948F068C01009751F438
:100FF000CB010E94CA068C01C801CDB7DEB7E0E183
:101000000C94AB06FC01E60FF71F9C01225031093E
:10101000E217F30708F49DC0D901CD91DC91119737
:10102000C617D70798F0C530D10530F3CE01049725
:101030008617970708F3C61BD70B2297C193D19346
:101040006D937C93CF010E946607D6CF5B01AC1AEB
:10105000BD0A4C018C0E9D1EA091E001B091E101F2
:10106000512C412CF12CE12C109731F58091DE01AF
:101070009091DF018815990509F05CC04616570666
:1010800008F058C08091000190910101009741F44F
:101090008DB79EB74091040150910501841B950BBB
:1010A000E817F90708F055C0F093DF01E093DE017F
:1010B000F90171836083A0CF8D919C911197129655
:1010C0006C90129713967C901397A815B90559F553
:1010D0006C0142E0C40ED11CCA14DB0420F1AC0147
:1010E0004A195B09DA011296159780F062827382C1
:1010F00051834083D9016D937C93E114F10471F025
:10110000D7011396FC93EE93129776CF22968C0F0D
:101110009D1FF90191838083F301EFCFF093E101EB
:10112000E093E00169CF4816590608F42C017D01CF
:10113000D3019ACFCB010E94CA067C01009749F0E7
:10114000AE01B8010E94AC08C8010E946607870181
:1011500053CF10E000E050CFFB01DC0102C0019052
:101160000D9241505040D8F70895FB01DC010190E9
:101170000D920020E1F70895F894FFCF0000E201FE
:101180008000000000005F01A600EC00AC011D0122
:10119000FB000F010D0A00526573657474696E6778
:1011A000205A00476F696E6720746F20582C5920B1
:0411B000002C2000EF
:107E0000112484B714BE81FFF0D085E080938100F7
:107E100082E08093C00088E18093C10086E0809377
:107E2000C20080E18093C4008EE0C9D0259A86E02C
:107E300020E33CEF91E0309385002093840096BBD3
:107E4000B09BFECF1D9AA8958150A9F7CC24DD24C4
:107E500088248394B5E0AB2EA1E19A2EF3E0BF2EE7
:107E6000A2D0813461F49FD0082FAFD0023811F036
:107E7000013811F484E001C083E08DD089C08234E0
:107E800011F484E103C0853419F485E0A6D080C0E4
:107E9000853579F488D0E82EFF2485D0082F10E0AE
:107EA000102F00270E291F29000F111F8ED06801E7
:107EB0006FC0863521F484E090D080E0DECF843638
:107EC00009F040C070D06FD0082F6DD080E0C81688
:107ED00080E7D80618F4F601B7BEE895C0E0D1E017
:107EE00062D089930C17E1F7F0E0CF16F0E7DF06D8
:107EF00018F0F601B7BEE89568D007B600FCFDCFD4
:107F0000A601A0E0B1E02C9130E011968C91119780
:107F100090E0982F8827822B932B1296FA010C0160
:107F200087BEE89511244E5F5F4FF1E0A038BF0790
:107F300051F7F601A7BEE89507B600FCFDCF97BE46
:107F4000E89526C08437B1F42ED02DD0F82E2BD052
:107F50003CD0F601EF2C8F010F5F1F4F84911BD097
:107F6000EA94F801C1F70894C11CD11CFA94CF0C13
:107F7000D11C0EC0853739F428D08EE10CD085E9AC
:107F80000AD08FE07ACF813511F488E018D01DD067
:107F900080E101D065CF982F8091C00085FFFCCF94
:107FA0009093C60008958091C00087FFFCCF809118
:107FB000C00084FD01C0A8958091C6000895E0E648
:107FC000F0E098E1908380830895EDDF803219F02E
:107FD00088E0F5DFFFCF84E1DECF1F93182FE3DFCA
:107FE0001150E9F7F2DF1F91089580E0E8DFEE27F6
:047FF000FF270994CA
:027FFE00040479
:00000001FF
